:100000000C9462000C948A000C948A000C948A0070
:100010000C948A000C948A000C948A000C948A0038
:100020000C948A000C948A000C948A000C948A0028
:100030000C948A000C948A000C948A000C948A0018
:100040000C9477070C948A000C94E7070C94C10772
:100050000C948A000C948A000C948A000C948A00F8
:100060000C948A000C948A000000000024002700F1
:100070002A0000000000250028002B0000000000DE
:1000800023002600290004040404040404040202DA
:100090000202020203030303030301020408102007
:1000A0004080010204081020010204081020000012
:1000B0000008000201000003040700000000000027
:1000C0000000190811241FBECFEFD8E0DEBFCDBF5E
:1000D00012E0A0E0B1E0E2E2F0E202C005900D9291
:1000E000A23BB107D9F723E0A2EBB2E001C01D9219
:1000F000AB39B207E1F710E0C2E6D0E004C02197C7
:10010000FE010E94170EC136D107C9F70E94C6082A
:100110000C940F100C940000833081F028F481308F
:1001200099F08230A9F008958730A9F08830C9F09D
:100130008430B1F4809180008F7D03C08091800075
:100140008F7780938000089584B58F7784BD08955C
:1001500084B58F7DFBCF8091B0008F778093B00006
:1001600008958091B0008F7DF9CFCF93DF93282F32
:1001700030E0F901E255FF4F8491F901E656FF4F57
:10018000D491F901EA57FF4FC491CC23A1F081111A
:100190000E948C00EC2FF0E0EE0FFF1FE458FF4FA1
:1001A000A591B491EC91ED2381E090E009F480E019
:1001B000DF91CF91089580E090E0FACF1F93CF9325
:1001C000DF93282F30E0F901E255FF4F8491F901C8
:1001D000E656FF4FD491F901EA57FF4FC491CC2363
:1001E000A9F0162F81110E948C00EC2FF0E0EE0F89
:1001F000FF1FEE58FF4FA591B4918FB7F894EC9183
:10020000111108C0D095DE23DC938FBFDF91CF9111
:100210001F910895DE2BF8CFCF93DF9390E0FC0180
:10022000E656FF4F24918A579F4FFC018491882303
:10023000D1F090E0880F991FFC01E859FF4FA5917C
:10024000B491FC01EE58FF4FC591D491623071F426
:100250009FB7F8943C91822F809583238C93E881FB
:100260002E2B28839FBFDF91CF9108958FB7F894ED
:10027000EC912E2B2C938FBFF6CF3FB7F894809143
:10028000BC029091BD02A091BE02B091BF0226B502
:10029000A89B05C02F3F19F00196A11DB11D3FBFBE
:1002A000BA2FA92F982F8827BC01CD01620F711D8D
:1002B000811D911D42E0660F771F881F991F4A9587
:1002C000D1F708952FB7F8946091B8027091B902F0
:1002D0008091BA029091BB022FBF0895AF92BF9256
:1002E000CF92DF92EF92FF920F931F93CF93DF9302
:1002F0006C017B018B01040F151FEB015E01AE1831
:10030000BF08C017D10759F06991D601ED91FC9152
:100310000190F081E02DC6010995892B79F7C5017F
:10032000DF91CF911F910F91FF90EF90DF90CF90D1
:10033000BF90AF900895FC01448155816081718127
:1003400080EC92E00C946E01FC01538D448D252FBE
:1003500030E0842F90E0821B930B541710F0CF965F
:10036000089501970895FC01918D828D981761F091
:10037000A28DAE0FBF2FB11D5D968C91928D9F5FA8
:100380009F73928F90E008958FEF9FEF0895FC0187
:10039000918D828D981731F0828DE80FF11D858D3A
:1003A00090E008958FEF9FEF0895FC01918D228DCD
:1003B000892F90E0805C9F4F821B91098F73992752
:1003C000089580EC92E00E94D50121E0892B09F488
:1003D00020E0822F089580E090E0892B29F00E9490
:1003E000E10181110C9400000895FC01A48DA80F77
:1003F000B92FB11DA35ABF4F2C91848D90E0019667
:100400008F739927848FA689B7892C93A089B18986
:100410008C91837080648C93938D848D981306C027
:100420000288F389E02D80818F7D80830895EF928B
:10043000FF920F931F93CF93DF93EC0181E0888F9E
:100440009B8D8C8D98131AC0E889F989808185FF6E
:1004500015C09FB7F894EE89FF896083E889F98910
:1004600080818370806480839FBF81E090E0DF9112
:10047000CF911F910F91FF90EF900895F62E0B8D65
:1004800010E00F5F1F4F0F731127E02E8C8D8E1120
:100490000CC00FB607FCFACFE889F989808185FF87
:1004A000F5CFCE010E94F501F1CFEB8DEC0FFD2FC2
:1004B000F11DE35AFF4FF0829FB7F8940B8FEA8942
:1004C000FB8980818062CFCFCF93DF93EC01888D51
:1004D0008823B9F0AA89BB89E889F9898C9185FDBF
:1004E00003C0808186FD0DC00FB607FCF7CF8C914D
:1004F00085FFF2CF808185FFEDCFCE010E94F5010F
:10050000E9CFDF91CF9108950F931F9350E040E022
:1005100060E070E0CB01A5E4A0937C0020917A001C
:10052000206420937A0020917A0026FDFCCF209150
:10053000780030917900E22FE170F0E08F01042E15
:1005400002C0000F111F0A94E2F7012E000C220BCB
:10055000330B602B712B822B932B4F5F5F4F4032FD
:100560005105D1F61F910F910895CF93DF93EC01C0
:100570000E9462016E837F838887998761E088810A
:100580000E94DE0081E08983DF91CF910895CF92B0
:10059000DF92EF92FF920F931F93CF93DF93EC01C3
:1005A0008B010E946201CE80DF80E884F984AB0178
:1005B000BC014C195D096E097F0930E020E040174D
:1005C00051076207730770F088819981992399F028
:1005D00060E00E94DE0019820E9462016E837F83C8
:1005E00088879987DF91CF911F910F91FF90EF90AE
:1005F000DF90CF90089561E00E94DE0081E0898362
:10060000EBCFCF93DF93EC010E9462016E837F8377
:100610008887998761E088810E940C0160E0888169
:100620000E94DE001982DF91CF9108950F931F93EE
:10063000CF93DF938C01D62FC0E0F8018181C817DA
:1006400090F480818C0F0E94B500F8012281281758
:10065000190639F48C2FC383DF91CF911F910F912D
:100660000895CF5FEACF8FEFDD23B1F38381F4CF1D
:100670000F931F93CF938C018FEFF8018383C0E01A
:10068000F8018181C81738F4808162E08C0F0E94E4
:100690000C01CF5FF5CFCF911F910F910895FC0111
:1006A00001900020E9F73197AF01481B590BBC01BD
:1006B00080EC92E00C946E01CF93DF930E949B013B
:1006C000EC0185E291E00E944F038C0F9D1FDF91AA
:1006D000CF910895CF93DF93D0E0C0E0009719F059
:1006E0000E944F03EC0185E291E00E944F038C0FC2
:1006F0009D1FDF91CF910895009711F00C944F0347
:1007000090E080E008958F929F92AF92BF92CF9237
:10071000DF92EF92FF92009711F16C01F12CE12C26
:100720000E943D014B015C010E943D01681979095D
:100730008A099B09683E734081059105A8F321E071
:10074000C21AD108E108F10888EE880E83E0981EED
:10075000A11CB11CC114D104E104F10429F780915A
:10076000830390918403009711F00E94B50260E02A
:10077000809180030E94DE0060E0809181030E94EE
:10078000DE008FEF80938203FF90EF90DF90CF9099
:10079000BF90AF909F908F900895CF93DF938091FB
:1007A00082038F3F21F090E080E00E948303C0919C
:1007B0008303D0918403209731F061E088810E9407
:1007C000DE0081E0898361E0809180030E94DE0089
:1007D00010928203DF91CF910895CF93DF938091A0
:1007E00082038F3F21F090E080E00E948303C0915C
:1007F0008303D0918403209731F061E088810E94C7
:10080000DE0081E0898361E0809181030E94DE0047
:1008100081E080938203DF91CF9108950F931F931E
:10082000CF93DF93EC0188819981009759F02A8159
:100830003B812617370730F081E0DF91CF911F9180
:100840000F9108958B016F5F7F4F0E94420F0097B9
:1008500059F0998388831B830A832C813D81232B44
:1008600059F7FC011082E8CF80E0E7CFCF93DF9308
:10087000EC0188819981009711F00E94B90E1982CC
:1008800018821D821C821B821A82DF91CF910895EB
:100890000F931F93CF93DF93EC010C811D810D5FAC
:1008A0001F4FB8010E940E04882391F028813981DE
:1008B0008C819D8160E672E0820F931F0E94081078
:1008C0001D830C83CE01DF91CF911F910F9108956D
:1008D000CE010E943604F6CFEF92FF920F931F9342
:1008E000CF93DF93EC01FB01E080F180E114F10490
:1008F00011F10481158101151105A9F08C819D81EB
:10090000080F191FB801CE010E940E04882399F028
:10091000288139818C819D81B701820F931F0E94AC
:1009200008101D830C83CE01DF91CF911F910F9191
:10093000FF90EF900895CE010E943604F4CFEF921D
:10094000FF920F931F93CF93DF93EC017B018A01FA
:10095000BA010E940E0481110BC0CE010E94360420
:10096000CE01DF91CF911F910F91FF90EF900895ED
:100970001D830C83B701888199810E940810F0CFF4
:10098000FB0101900020E9F73197AF01461B570B9F
:100990000C949F040F931F93CF93DF93CDB7DEB7D3
:1009A00062970FB6F894DEBF0FBECDBF8C01CB01AE
:1009B000F8011182108213821282158214824AE099
:1009C000BE016F5F7F4F0E94320DBE016F5F7F4F90
:1009D000C8010E94C00462960FB6F894DEBF0FBE35
:1009E000CDBFDF91CF911F910F9108950F931F936A
:1009F000CF93DF93CDB7DEB761970FB6F894DEBF24
:100A00000FBECDBF8C01CB01F80111821082138281
:100A10001282158214824AE0BE016F5F7F4F0E94EE
:100A20003D0DBE016F5F7F4FC8010E94C0046196FB
:100A30000FB6F894DEBF0FBECDBFDF91CF911F91EF
:100A40000F910895FB01DC0111961C921E921396E2
:100A50001C921E92129715961C921E92149786173E
:100A6000970749F0608171816115710521F044811A
:100A700055810C949F040895FC0111821082138209
:100A8000128215821482FB0101900020E9F7319750
:100A9000AF01461B570B0C949F04FC018081918190
:100AA000009711F00C94B90E08952F923F924F9237
:100AB0005F926F927F928F929F92AF92BF92CF92EE
:100AC000DF92EF92FF920F931F93CF93DF93CDB7F7
:100AD000DEB72C970FB6F894DEBF0FBECDBF8C01EA
:100AE0005B0188E291E00E947C03B801CE0101968F
:100AF0000E94CA0462E371E0CE0107960E943C05A1
:100B0000BE016F5F7F4FCE0107960E946C040E946A
:100B10005C03CE0107960E944D05CE0101960E940E
:100B20004D0540906103C42CD12C0C9D70010D9D8E
:100B3000F00C1C9DF00C112480915F0390916003D8
:100B4000E80EF91E242C269400E081E0C81AD10892
:100B5000802F90E08C159D05CCF58E0D9F1D0E9479
:100B6000670D182F0F5F302E712C612C5524539474
:100B70004701800E911C341468F4C401860D971D42
:100B80000E94670D181301C053943394EFEF6E1A4F
:100B90007E0AF1CF2514E0F6812F2C960FB6F8943B
:100BA000DEBF0FBECDBFDF91CF911F910F91FF90A0
:100BB000EF90DF90CF90BF90AF909F908F907F90FD
:100BC0006F905F904F903F902F90089581E0F501D6
:100BD000808388E291E00E947C0386E491E00E9499
:100BE0006A038FEFDACFAF92BF92CF92DF92EF928C
:100BF000FF920F931F93CF93DF93CDB7DEB72C9760
:100C00000FB6F894DEBF0FBECDBF6C01162F8091DA
:100C100061038C9D70018D9DF00C112480915F0308
:100C200090916003E80EF91E00E0809161030817BF
:100C300070F45701A00EB11CC5010E94670D181772
:100C400021F0612FC5010E946F0D0F5FEECF88E587
:100C500091E00E947C03B601CE0101960E94CA0475
:100C600062E671E0CE0107960E943C05BE016F5F0F
:100C70007F4FCE0107960E946C040E949B01CE011B
:100C800007960E944D05CE0101960E944D05612FE9
:100C9000110F770BCE0101960E94CA0467E771E03D
:100CA000CE0107960E943C05BE016F5F7F4FCE01CB
:100CB00007960E946C040E949B01CE0107960E9439
:100CC0004D05CE0101960E944D056091640370911F
:100CD0006503CE0101960E94F60464E871E0CE013E
:100CE00007960E943C05BE016F5F7F4FCE010796BD
:100CF0000E946C040E945C03CE0107960E944D0581
:100D0000CE0101960E944D052C960FB6F894DEBFD9
:100D10000FBECDBFDF91CF911F910F91FF90EF904C
:100D2000DF90CF90BF90AF900895CF92DF92EF9277
:100D3000FF92611571058105910511F00E94290D41
:100D4000C0905D03D0905E03F12CE12CC114D1045E
:100D5000E104F10439F00E94DA0CA70196010E9427
:100D60007D0D6B01D0926303C09262036C2D90E005
:100D700080E00E94F3056091630381E090E00E94AF
:100D8000F30580916203909163036FEF0296FF90E9
:100D9000EF90DF90CF900C94F305CF93DF93D09139
:100DA000920361E08FE893E00E941603C82F8093BE
:100DB000B6028D17B1F1809164039091650301969D
:100DC000909365038093640320915D0330915E03EB
:100DD00028173907F0F4809162039091630341E092
:100DE00050E0509365034093640301968217930784
:100DF00058F11092630310926203609162038EEFC8
:100E00009FEF0E94F305609163038FEF9FEF0E94B5
:100E1000F30580916203909163036C2F02960E9408
:100E2000F305C0E0D0E080919003C81790F4809162
:100E30008F038C0F0E94B50020919103281719068B
:100E400009F4DF5FCF5FEFCF90936303809362037A
:100E5000D4CFD230B8F090E080E00E94830380933A
:100E6000000182E991E00E946A0360EA7FE086E780
:100E700093E00E94C70260EA7FE085E893E00E9469
:100E8000C702F3CF60E08AE693E00E9416038F3F2B
:100E900059F190E080E00E9483038093000188EA8A
:100EA00091E00E946A0360E08AE693E00E941603E4
:100EB0008F3F69F060E47FE186E793E00E94C7021C
:100EC00060E47FE185E893E00E94C702ECCF60E038
:100ED000809176030E94DE001092770385E893E00C
:100EE000DF91CF910C94B502DF91CF9108951F92BD
:100EF0000F920FB60F9211242F933F938F939F93CE
:100F0000AF93BF938091B8029091B902A091BA02B9
:100F1000B091BB023091B70223E0230F2D3758F573
:100F20000196A11DB11D2093B7028093B802909342
:100F3000B902A093BA02B093BB028091BC02909117
:100F4000BD02A091BE02B091BF020196A11DB11DCC
:100F50008093BC029093BD02A093BE02B093BF02E7
:100F6000BF91AF919F918F913F912F910F900FBEA5
:100F70000F901F90189526E8230F0296A11DB11D12
:100F8000D2CF1F920F920FB60F9211242F933F933F
:100F90004F935F936F937F938F939F93AF93BF9381
:100FA000EF93FF9380EC92E00E94F501FF91EF91A7
:100FB000BF91AF919F918F917F916F915F914F9171
:100FC0003F912F910F900FBE0F901F9018951F9279
:100FD0000F920FB60F9211242F938F939F93EF933D
:100FE000FF93E091D002F091D1028081E091D6028E
:100FF000F091D70282FD1BC090818091D9028F5F52
:101000008F732091DA02821741F0E091D902F0E06B
:10101000E054FD4F958F8093D902FF91EF919F91FE
:101020008F912F910F900FBE0F901F901895808178
:10103000F4CFEF92FF921F93CF93DF93E0ECF2E0B7
:101040001382128288EE93E0A0E0B0E0848395835F
:10105000A683B78387E191E09183808385EC90E05C
:101060009587848784EC90E09787868780EC90E072
:10107000918B808B81EC90E0938B828B82EC90E063
:10108000958B848B86EC90E0978B868B118E128EDD
:10109000138E148EE3E9F3E012E01083C4E0C18301
:1010A0001282CF010E943803EFE8F3E088E08083EA
:1010B000C1831282CF010E94380385E8E82E83E0C5
:1010C000F82E8CE0F701808380E797E1A0E0B0E0A4
:1010D00082839383A483B583C7010E940103C0E880
:1010E000D3E086E0888387E08983FC82EB8261E03D
:1010F00086E00E940C0161E089810E940C0190E071
:1011000080E00E9483038FEF8A83E6E7F3E08DE0BF
:1011100080831282138214821582CF010E94010300
:10112000E2E7F3E08EE0808311831282CF010E9418
:101130003803EEE6F3E080E18083C1E0C183C2833F
:10114000CF010E943803EAE6F3E081E18083C183A6
:101150001282CF010E943803E6E6F3E082E1808349
:10116000C1831282CF010E943803EDE5F3E08EEFD8
:1011700091E09183808313821282148310861782F8
:10118000DF91CF911F91FF90EF900895CF93DF9360
:10119000CDB7DEB765970FB6F894DEBF0FBECDBFF3
:1011A000789484B5826084BD84B5816084BD85B542
:1011B000826085BD85B5816085BD80916E0081604E
:1011C00080936E00109281008091810082608093F4
:1011D00081008091810081608093810080918000F6
:1011E0008160809380008091B10084608093B10021
:1011F0008091B00081608093B00080917A0084601B
:1012000080937A0080917A00826080937A00809146
:101210007A00816080937A0080917A008068809360
:101220007A001092C100E091D002F091D10282E0E8
:101230008083E091CC02F091CD021082E091CE0249
:10124000F091CF0280E180831092D802E091D40225
:10125000F091D50286E08083E091D202F091D30232
:10126000808180618083E091D202F091D3028081FD
:1012700088608083E091D202F091D30280818068FF
:101280008083E091D202F091D30280818F7D8083B0
:1012900060E086E693E00E941603182F0E94840205
:1012A00019821F3F09F402C10E9495068981888B2B
:1012B00089EF91E00E947C0360915D0370915E0371
:1012C000CE010A960E94F60463E072E0CE01019618
:1012D0000E943C05BE01665F7F4FCE0101960E94D1
:1012E0006C040E949B01CE0101960E944D05CE0127
:1012F0000A960E944D0560915F0370916003CE01D4
:101300000A960E94F6046AE072E0CE0101960E94FD
:101310003C05BE01665F7F4FCE0101960E946C04C2
:101320000E949B01CE0101960E944D05CE010A96B6
:101330000E944D05809161031B861A861D861C86BE
:101340001F861E864AE0BE016F5F7F4F90E00E94BD
:101350003D0DBE016F5F7F4FCE010A960E94C00413
:1013600066E172E0CE0101960E943C05BE01665F17
:101370007F4FCE0101960E946C040E949B01CE011A
:1013800001960E944D05CE010A960E944D0560917E
:101390005F03709160036E5F7F4FCE010A960E94DB
:1013A000F60465E272E0CE0101960E943C05BE01A2
:1013B000665F7F4FCE0101960E946C040E949B01E4
:1013C000CE0101960E944D05CE010A960E944D0560
:1013D0006091620370916303CE010A960E94F60445
:1013E0006CE372E0CE0101960E943C05BE01665F8F
:1013F0007F4FCE0101960E946C040E949B01CE019A
:1014000001960E944D05CE010A960E944D056091FD
:10141000640370916503CE010A960E94F6046BE4A2
:1014200072E0CE0101960E943C05BE01665F7F4FCF
:10143000CE0101960E946C040E945C03CE010196CD
:101440000E944D05CE010A960E944D058889882389
:1014500029F00E9484020E949506188A80916203F6
:1014600090916303BE01605F7F4F02960E94550515
:10147000988991118FEF8093920361E08FE893E058
:101480000E9416038093B6028430E8F160E083E99D
:1014900093E00E9416038F3F31F50E94CD0660ED68
:1014A00077E085E893E00E94C702F0CFBE016F5F4E
:1014B0007F4F90E080E00E945505182FBE016F5FBE
:1014C0007F4F81E090E00E945505082E000C990B9B
:1014D000982F8827810F911D17FD9A95909363038C
:1014E00080936203E3CE0E94ED038091B6028330C5
:1014F00019F00E94CD06F9CF90E080E00E948303AE
:1015000082E08093000180E0E82E80E0F82E0E94C7
:1015100062010091B2021091B3022091B4023091A5
:10152000B502601B710B820B930B613D7740810507
:10153000910508F4F9C00E9462016093B2027093B1
:10154000B3028093B4029093B5028AE592E00E94C0
:101550007C0384E692E00E947C038091820387FDF5
:101560005AC1882309F45AC18AEC91E00E947C0395
:101570008CE692E00E947C0380918603882309F424
:1015800050C18AED91E00E947C0389E792E00E94BD
:101590007C036091B6026F3F09F046C162EE71E0D4
:1015A000CE0101960E943C0510E0CE0101960E94FA
:1015B0009B01CE0101960E944D05112341F0CE0101
:1015C00040960E944D05CE010A960E944D0582E884
:1015D00092E00E947C03609100016F3F09F03FC1DF
:1015E00062EE71E0CE0101960E943C0510E0CE0152
:1015F00001960E949B01CE0101960E944D05112388
:1016000041F0CE010A960E944D05CE0140960E94FF
:101610004D0585E892E00E947C0360E082E793E05C
:101620000E94160387FD34C1882309F434C187EE74
:1016300091E00E947C0380E992E00E947C0360E0DC
:101640008FE893E00E94160387FD28C1682F880F5A
:10165000770BCE0140960E94CA04BE01605F7F4FA7
:10166000CE010A960E942205CE010A960E944804E5
:10167000BC01CE0101960E94220511E0CE01019627
:101680000E949B01CE0101960E944D05112341F05D
:10169000CE010A960E944D05CE0140960E944D054E
:1016A0008BE992E00E947C0360E083E993E00E9472
:1016B000160387FDFBC0682F880F770BCE0140967D
:1016C0000E94CA04BE01605F7F4FCE010A960E944D
:1016D0002205CE010A960E944804BC01CE01019663
:1016E0000E94220511E0CE0101960E949B01CE01CD
:1016F00001960E944D05112341F0CE010A960E94E9
:101700004D05CE0140960E944D0587EA92E00E9469
:101710007C0360E08EE693E00E94160387FDCEC056
:1017200081EF91E00E946A03809182038F3F89F5E7
:1017300080918603882311F10E94620100918B033E
:1017400010918C0320918D0330918E03601B710BDF
:10175000820B930B009187031091880320918903DA
:1017600030918A03601771078207930738F060E0B1
:10177000809185030E94DE001092860360E08EE671
:1017800093E00E9416038F3F21F085E893E00E94CA
:10179000B5020E94CD06109100011F3F69F460E080
:1017A00083E993E00E941603809300019091B602B2
:1017B000891302C01093000180910001909182036F
:1017C0009F3F09F47EC0E091B602E8130AC0EE0F15
:1017D000FF0BE55FFE4F808191810E948303809320
:1017E000000160E082E793E00E941603182F03E0F7
:1017F000813009F473C000E08F3F09F06FC0E1143D
:10180000F10409F484CE0E94E101882309F47FCE1B
:101810000E9400007CCE82EC91E0A8CE82ED91E0A7
:10182000A5CE8EED91E0AFCE062E000C770BCE014B
:101830000A960E94CA0460E672E0CE0140960E94B9
:101840003C05BE01665F7F4FCE0140960E946C044E
:10185000BC01CE0101960E94220511E0A6CE062E03
:10186000000C770BCE0140960E94CA04BE01605F57
:101870007F4FCE010A960E942205CE010A960E9451
:101880004804BC01CE0101960E94220511E0AFCEB2
:1018900082EE91E0CECE8CEE91E0CBCE62EE71E0A6
:1018A000CE0101960E943C0510E0E8CE62EE71E0A8
:1018B000CE0101960E943C0510E015CF85EF91E026
:1018C00031CF8F3F09F48DCF9091B60298171CF459
:1018D0000E94ED0386CF0E94CD0383CF8091B60294
:1018E0008017A9F0113081F40E94ED0360E082E7D7
:1018F00093E00E94160318130AC08091B602801765
:1019000031F00E94CD06F2CF0E94CD03EFCF90E0E0
:1019100080E00E9483038093000171CF8F929F9299
:10192000AF92BF92CF92DF92EF92FF92CF93DF936D
:10193000EC01688179818A819B816115710581053E
:10194000910521F464E279ED8BE597E02DE133EF29
:1019500041E050E00E947D0D49015A019B01AC011C
:10196000A7EAB1E40E949C0D6B017C01ACEEB4EFE0
:10197000A50194010E94AA0DC60ED71EE81EF91EED
:10198000F7FE06C081E0C81AD108E10880E8F80A2D
:10199000C882D982EA82FB82C701B6019F77DF91B4
:1019A000CF91FF90EF90DF90CF90BF90AF909F903E
:1019B0008F9008958F929F92AF92BF92CF92DF92B5
:1019C000EF92FF92609101017091020180910301F9
:1019D00090910401611571058105910521F464E27E
:1019E00079ED8BE597E02DE133EF41E050E00E9487
:1019F0007D0D49015A019B01AC01A7EAB1E40E94A7
:101A00009C0D6B017C01ACEEB4EFA50194010E942A
:101A1000AA0DC60ED71EE81EF91EF7FE06C081E00D
:101A2000C81AD108E10880E8F80AC0920101D092F2
:101A30000201E0920301F0920401C701B6019F7711
:101A4000FF90EF90DF90CF90BF90AF909F908F90DE
:101A500008956093010170930201809303019093B4
:101A600004010895BB274A3031F4992322F4BDE2E2
:101A7000909581959F4F0C943E0DBB27FB015527F8
:101A8000AA27880F991FAA1FA41710F0A41B8395DB
:101A90005051B9F7A05DAA3308F0A95DA193009752
:101AA00079F7B111B1931192CB010C94570DDC0170
:101AB000FC01672F71917723E1F7329704C07C9185
:101AC0006D9370836291AE17BF07C8F30895F999BB
:101AD000FECF92BD81BDF89A992780B50895262F33
:101AE000F999FECF1FBA92BD81BD20BD0FB6F89403
:101AF000FA9AF99A0FBE01960895052E97FB1EF4E7
:101B000000940E94940D57FD07D00E94E60D07FC3B
:101B100003D04EF40C94940D50954095309521953A
:101B20003F4F4F4F5F4F0895909580957095619509
:101B30007F4F8F4F9F4F08950E94080EA59F900DD5
:101B4000B49F900DA49F800D911D11240895B7FF9F
:101B50000C949C0D0E949C0D821B930B08952F9258
:101B60003F924F925F926F927F928F929F92AF922D
:101B7000BF92CF92DF92EF92FF920F931F93CF937A
:101B8000DF93CDB7DEB7CA1BDB0B0FB6F894DEBF11
:101B90000FBECDBF09942A88398848885F846E8437
:101BA0007D848C849B84AA84B984C884DF80EE8081
:101BB000FD800C811B81AA81B981CE0FD11D0FB68A
:101BC000F894DEBF0FBECDBFED010895A1E21A2E3D
:101BD000AA1BBB1BFD010DC0AA1FBB1FEE1FFF1FD1
:101BE000A217B307E407F50720F0A21BB30BE40B21
:101BF000F50B661F771F881F991F1A9469F7609568
:101C00007095809590959B01AC01BD01CF01089521
:101C1000A29FB001B39FC001A39F700D811D11242D
:101C2000911DB29F700D811D1124911D0895EE0F1D
:101C3000FF1F0590F491E02D09940F931F93CF930C
:101C4000DF938230910510F482E090E0E0919903F7
:101C5000F0919A0330E020E0B0E0A0E0309799F4F2
:101C60002115310509F44AC0281B390B24303105F0
:101C7000D8F58A819B816115710589F1FB019383F8
:101C80008283FE0111C04081518102811381481776
:101C90005907E0F04817590799F4109761F0129628
:101CA0000C93129713961C933296CF01DF91CF912C
:101CB0001F910F9108950093990310939A03F4CF05
:101CC0002115310551F04217530738F0A901DB0106
:101CD0009A01BD01DF01F801C1CFEF01F9CF909367
:101CE0009A0380939903CDCFFE01E20FF31F8193F6
:101CF00091932250310939832883D7CF20919703BC
:101D000030919803232B41F4209107013091080171
:101D10003093980320939703209105013091060199
:101D20002115310541F42DB73EB74091090150917D
:101D30000A01241B350BE0919703F0919803E217F9
:101D4000F307A0F42E1B3F0B2817390778F0AC01DE
:101D50004E5F5F4F2417350748F04E0F5F1F5093BB
:101D6000980340939703819391939FCFF0E0E0E035
:101D70009CCFCF93DF930097E9F0FC013297138259
:101D80001282A0919903B0919A03ED0130E020E016
:101D90001097A1F420813181820F931F2091970326
:101DA000309198032817390709F061C0F093980320
:101DB000E0939703DF91CF910895EA01CE17DF07F3
:101DC000E8F54A815B819E0141155105B1F7E901B2
:101DD000FB83EA8349915991C40FD51FEC17FD0786
:101DE00061F4808191810296840F951FE9019983A6
:101DF0008883828193819B838A83F0E0E0E012965E
:101E00008D919C9113970097B9F52D913C91119765
:101E1000CD010296820F931F209197033091980372
:101E20002817390739F6309751F510929A03109216
:101E30009903B0939803A0939703BCCFD383C28335
:101E400040815181840F951FC817D90761F44E5FF7
:101E50005F4F88819981480F591F518340838A8140
:101E60009B81938382832115310509F0B0CFF093D4
:101E70009A03E09399039ECFFD01DC01C0CF13824A
:101E80001282D7CFB0E0A0E0E8E4FFE00C94B10DFF
:101E90008C01009751F4CB010E941D0E8C01C801EA
:101EA000CDB7DEB7E0E10C94CD0DFC01E60FF71FD6
:101EB0009C0122503109E217F30708F49DC0D901B3
:101EC000CD91DC911197C617D70798F0C530D10591
:101ED00030F3CE0104978617970708F3C61BD70B7C
:101EE0002297C193D1936D937C93CF010E94B90E39
:101EF000D6CF5B01AC1ABD0A4C018C0E9D1EA09181
:101F00009903B0919A03512C412CF12CE12C10979C
:101F100031F580919703909198038815990509F000
:101F20005CC04616570608F058C080910501909194
:101F30000601009741F48DB79EB740910901509179
:101F40000A01841B950BE817F90708F055C0F093B8
:101F50009803E0939703F90171836083A0CF8D917B
:101F60009C91119712966C90129713967C901397F0
:101F7000A815B90559F56C0142E0C40ED11CCA146C
:101F8000DB0420F1AC014A195B09DA0112961597BE
:101F900080F06282738251834083D9016D937C9378
:101FA000E114F10471F0D7011396FC93EE931297AC
:101FB00076CF22968C0F9D1FF90191838083F301C8
:101FC000EFCFF0939A03E093990369CF481659062F
:101FD00008F42C017D01D3019ACFCB010E941D0E84
:101FE0007C01009749F0AE01B8010E94FF0FC801C3
:101FF0000E94B90E870153CF10E000E050CFFB01E3
:10200000DC0102C001900D9241505040D8F7089574
:10201000FB01DC0101900D920020E1F70895F89496
:02202000FFCFF0
:10202200FF0100000000009B038000DC05E803F4D0
:102032000100000000000017026E01A4016402D535
:1020420001B301C7010D0A00524541443A20202044
:1020520020004D656D6F7279207265616420617434
:102062002069643A20004D656D6F72792072656156
:1020720064206572726F720057524954453A2020AB
:1020820020004D656D6F72792077726974652061E9
:10209200742069643A20002077697468206461744E
:1020A200613A2000207361766520636F756E743A21
:1020B20020004552524F523A2020204572726F72D0
:1020C20020737461746521005350454349414C3A71
:1020D20020456D657267656E6379207374617465FE
:1020E200210053746F7070656400557020202020A9
:1020F2002000446F776E202020004F6E20004F6634
:1021020066004E6F6E65005570202000446F776E3A
:1021120000596573004E6F20004D454D4F52593A9C
:1021220020200053697A653A20003B2041646472A2
:102132006573733A20003B20526564756E64616E6C
:1021420063793A20003B20446174612073746172A8
:102152007420616464726573733A20003B204164A9
:1021620064726573732069643A20003B2053617680
:102172006520636F756E743A20004C4F473A2020F9
:10218200202020004D6F746F723A20003B204C6576
:102192006453747269703A20003B20476F616C3A55
:1021A20020002D3E003B204D616E75616C3A20008F
:1021B2003B204C6F634E6F773A20003B204C6F639D
:1021C20053746F703A20003B204D6F74696F6E3A02
:0221D2002000EB
:00000001FF
